:020000040000FA
:060000000212520207AFDC
:03002B0002108937
:03003300020E09B1
:03004300020F2584
:030053000206E0C2
:03006B00020DEF94
:100083000207440101FF01010503010F10FEFFC632
:100093001AC61AC61AC61A7C197619C61A2B28004C
:1000A300000000EF28000000000C0000000C00011D
:1000B300FFFF0B9505618800010101003606000072
:1000C30000AB06E80364006400B801020200080004
:1000D30000050207051E02051E020A0A03B80B02E9
:1000E300803E0102F1FF011496511800020206300E
:1000F300313233343536373839414243444546008B
:10010300286E756C6C20706F696E74657229003F80
:100113003F3F000000807F0000803FF9021550B789
:1001230043BA510000204100E7DB2E0000A040103D
:10013300000000080000000A00000012129E604642
:10014300121271603DE9687008F618F618F618F691
:1001530022748067F7120172090909748067F72214
:10016300121271601D12129E7005191919801A124C
:100173001125701F12113AC37003E6673319191959
:1001830040071818182208080874FFF618F618F61E
:1001930018F62212113A60171212DD702192F01232
:1001A30012E77019501720F014080808090909E725
:1001B300F61819E7F61819E7F61819E7F6221212D6
:1001C300E760E6E869701F0808E62480F608E4366D
:1001D300F618547FB47F0CE654806007F6E418F6F3
:1001E30018F622181822E9C6CC08C6CD08C6CE08D0
:1001F300C6CFC0E0E8C0E0EAC0E0EBC0E009E9F840
:1002030009E7FA09E7FBE6F918E6F8C3EC98ED9974
:10021300EE9AEBC2E7F5F0EFC2E795F0500E600CF3
:10022300EBCFFBEACEFAE9CDF9E8CCF8EAA2E7D2C4
:10023300E7FAEB33FB13F5F0EEA2E7D2E7FEEF3379
:10024300FFC5F013A2E730E601B313C5F0C3C0E066
:10025300C0F07F00C39BFB605B9418600C401AD016
:10026300E023F9D0E0F80203418AF0E9486003D2C1
:10027300F0E4AFF0FAF9F8803BEB30E40D89F0EAF3
:100283006003D2F0E4AFF0F9CAF8EB30E30D88F085
:10029300EF6002D2F0AFF0E4CAC9F8EB5407601480
:1002A300FBC3EA13FAE913F9E813F8EF135002D288
:1002B300E0FFDBEDD0E0C0E030E739C3E49FFFF5BA
:1002C300F0EC98FC42F0ED99FD42F0EE9AFE42F01C
:1002D300D0E0F9D0E0F8E5F0607AE923F9EE20E721
:1002E30042D8028067C3EF33FFEC33FCED33FDEEFE
:1002F30033FE80EAEC28FCED39FDEE3AFED0E02334
:10030300F9D0E0F84002801BC3EE13FEED13FDECC1
:1003130013FCEF135002D2E0FF08B800067F7F748E
:10032300FF802EEF3350178CF020F00260100CBCCE
:10033300000C0DBD00080EBE000408E860DFE933C1
:10034300E813FFEE2313FE4F4D4C8008E95480FF62
:10035300E4FEFDFCEE33EF33F47004FCFD7E80D04D
:10036300E0FBD0E0FAD0E0F8D0E0CFC618CEC61854
:10037300CDC618CCC6F922121271700418181822AF
:1003830012129E700D74FFF61819F61819F6181943
:10039300F622E7548066F61212E7700F1212DD7030
:1003A300F014F608F608F608F680D11212DD700C88
:1003B300F608F608768008E6447F80EC12113D705B
:1003C3000C12112860BFE65480F6E480BB1211289A
:1003D300700519191980A5E869700C763F187680A5
:1003E30018F618F6E8F922E6CDC0E018ECC0E0E60E
:1003F30033CD33CDD313F6E719FCE7191933CC33D7
:10040300C3947F400ECD9D502408E65480F6E41833
:10041300F6800FF4043D14501408E6447FF6187672
:1004230080E418F618F6D0E0FCD0E0FD22CCD3131C
:10043300CCFD18E4C6CBC0E018E4C6CAC0E0080887
:10044300ED08C633E613F618E433C675F003C3CAE2
:1004530097CA09CB97CB199C40047D08802EBD0019
:100463000302052316B6FF050606081618C3CA338A
:10047300CACB33CB33CA27CA09CB37CB193CC37D8D
:1004830008803E187D0820E75CC633C6CA33CACB52
:1004930033CB33DDF1D5F0EB30E77BCA97CA09CB19
:1004A300974ACB199C406F4B7025E620E02180666C
:1004B300187D08C3CA97CA09CB97CB199CD3C633F7
:1004C300C6CA33CACB33CB3350C9DDE7D5F0E1D34A
:1004D300E4C636C608C636C608C636C608C636C615
:1004E3001818188031C3CA97CA09CB97CB199CB384
:1004F3004097C633C6CA33CACB33CB33DD34D5F0CA
:100503002EC6A2E0C640C8CA27CA09CB37194A700B
:10051300BECB3CB480B90808E63308E633601F1845
:100523001818D0E0FAD0E0FBD0E0FCD0E0FD2218B0
:100533007D08CA27CA09CB37CB193CD3808013F671
:1005430018E4B67F11F618B6FF0EF618C60470D27B
:100553000808768080CAF618F618F680C5001212CD
:1005630071604F12129E6012E7548066F6121125D5
:1005730070111212DD703B090909F4F618F618F62A
:1005830018F62212113A70151212E708080860EAE9
:10059300E6447FF618768018E4F618F6221212E77E
:1005A30060161212DD7012E4F608F608F608E65437
:1005B30080F609090918181822EAC0E0EBC0E0EC3C
:1005C300C0E0EDC0E0E687F0A4FBACF008E687F0FE
:1005D300A42CFCE435F0FA1809E687F0A42C4B6050
:1005E300027401CA35F0FCE433FB09E687F0D2F765
:1005F300A42CCB35F0FC1908E687F0A42BCC35F0FE
:10060300FBE433FD0819E687F0D2E7A42C4ACB3587
:10061300F0CD3400FC09E687F0D2E7A42DCC35F009
:10062300FDE433FA0918E687F0D2F7A42CCD35F0B0
:10063300CA3400FC08E687F0D2E7D2F7A42ACC3507
:10064300F07A7E20E70B0ACB33CBCD33CDCC33CC42
:1006530033CB3350147004ED30E00ED2F1E4CD3DD2
:10066300CDCC3CCC3B5005DA05C2F1EB547FC6330D
:1006730008E63392F0FBE73309E733C39A502D2B97
:1006830070190C0D4C4D70151806E608C333700D28
:1006930020F10AA2F013F6E418800B4024E4F630AC
:1006A300F002768018F618F618F68024D33B14501F
:1006B3001074FFA2F013F6187680E418F618F6808B
:1006C3000FA2F013F618E63303F618ECF618EDF65E
:1006D300D0E0FDD0E0FCD0E0FBD0E0FA22C0E07433
:1006E300F2120ADAA2AFE433FED2AFE5A7FFE5A127
:1006F300F5085F5410600612227075A1EFE5085FDC
:100703005408600812227675A1F7802BEFA2E0C08F
:10071300D0E508A2E092F01211B0158182F05017D3
:10072300906198E0F8900B85E0C398A2D265D0332E
:100733005002E8F075A1FEEEA2E092AF7F01020B3A
:1007430091C0E074F2120ADAA2AFE433FED2AF90A2
:1007530061A4E0F8759B00E5915854086008759111
:10076300F71222BE802AE59158541060087591EF64
:100773001222C4801BE8A2E0C0D0E591A2E092F06F
:100783001211B0158182F05007E0C2E0F012240884
:100793009061A3E0F8E5E9585404600E1223DE7576
:1007A300E9FB906193E0A2E640F2808BC0E074F233
:1007B300120ADAA2AFE433FED2AF9061A5E0F8E506
:1007C300BF585404600675BFFB12242002073A1277
:1007D300081D30F039120862803412081D20F0140D
:1007E30030E72B74FFFCFBFA747F8022E4FCFBFAF6
:1007F3007480801AB48008BC00F2BB00EF800F50F5
:10080300EBF9E4C39AFAE49BFBE49CFCE499C6CCC1
:1008130018C6CB18C6CA18C6F922E4C9C608CAC680
:1008230008CBC6D3330308CCC63392F0C3947F40BE
:100833002E94184019C9B90704CACBCC225025C33A
:1008430009CA33CACB33CBCC33CC33D9F422F460CB
:100853000DC9CCC313CB13CBCA13CAD9F6CC22E42C
:10086300FCFBFA2214FCFBFA22C3E498F8E499F99E
:100873001208AD8026C3E49AFAE49BFBE920E7E97A
:100883001208ADE498F8E499F922C3E498F8E499DE
:10089300F91208ADE498F8E499F9C3E49AFAE49BF1
:1008A300FB22EB20E7CFE920E7E0B90010BB00080B
:1008B300E88AF084F8AAF022E4FBC8FA22EB70225B
:1008C3007B10C833C8C933C9335007C39AC3DBF29B
:1008D30080069A50012ADBEAC833F4C8C933F4C945
:1008E300FA2275F008E4C833C8C933C933C99AC9B1
:1008F3009B5004C92AC93BD5F0ECFBC833F4C8E4C8
:10090300C9FA22080808EAC0E0EBC0E086F0E7A4D1
:10091300FA180986F0E7A42AFA180986F0E7A42A48
:10092300FA180986F0E7A42AFA1986F0E7A4FBE58A
:10093300F02AFA190886F0E7A42BFBE5F03AFA1936
:100943000886F0E7A42BFBE5F03AFA18180986F0BD
:10095300E7A4C5F02BFBE43AFA1908E7C5F0C6A4EF
:1009630026F6E5F03BFBE43AFA1886F0E7A4F6E551
:10097300F00826F6E43B08F6E43A08F6D0E0FBD0AC
:10098300E0FA22080808E630E71112116312099E03
:10099300080808C64480C618181822181818E979D8
:1009A3009EC608CAC608CBC608CCC6C370207996B3
:1009B300CACBCC7019798ECBCC70137986CC700EE0
:1009C300F9802ACA33CACB33CBCC33CC331930E7C3
:1009D300F2CCCBCA3350147004EA30E00DE4CA3AC7
:1009E300CACB3BCBCC3CCC500209C3E913C6CC18D1
:1009F3002313C6CB18C6CA18C6F922E4CFC0E0E455
:100A0300CEC0E0E4CDC0E0E4CCC0E075F020C3E6A6
:100A130033F608E633F608E633F608E633F6181835
:100A230018EC33FCED33FDEE33FEEF33FFC3EC97ED
:100A330009ED9709EE9709EF97191919400FFFEC84
:100A430097FC09ED97FD09EE97FE191906D5F0BE3F
:100A5300ECF709EDF709EEF709EFF7191919D0E0EB
:100A6300FCD0E0FDD0E0FED0E0FF222518C582C017
:100A7300E0E51934FFC583C0E0E518C3958224F887
:100A830010AF0885831985821880088583198582AC
:100A930018D2AFCEF0A3E520F0A37808E608F0A3C0
:100AA300DEFAEFF0A3E58124FAF8E608F0A3E608FE
:100AB300F0A3E608F0A30808E608F0A3E608F0A30D
:100AC30015811581D0E0FED0E0F8158115811581DF
:100AD300E8C0E0EEC0E022C0D02518C582C0E0E542
:100AE3001934FFC583C0E0E518C3958224F310AF22
:100AF300088583198582188008858319858218D211
:100B0300AFC8F0A3E9F0A3EAF0A3EBF0A37908E7F9
:100B130009F0A3D8FAECF0A3EDF0A3EEF0A3EFF005
:100B2300A3D0E0F0A3D0E0F0A3D0E0F0A3E520F061
:100B3300A3E5F0F0A3221212D2B90003020B7BE467
:100B4300900301784C790F8002F0A3D8FCD9FA9076
:100B5300114CAA82AB8390008678B979018015E4A1
:100B630093A3AC82AD838A828B83F0A3AA82AB83E7
:100B73008C828D83D8E9D9E77582147583EE74036B
:100B8300120FE87582327583277400120FE88519F6
:100B930083851882E0C0E0A3E0F9A3E0FAA3E0FBB9
:100BA300A37808E0F608A3DFFAE0FCA3E0FDA3E0E6
:100BB300FEA3E0FFA3E0C0E0A3E0C0E0A3E0F5D024
:100BC300A3E0F520A3E0A3F5F010AF088583198512
:100BD30082188008858319858218D2AFD082D0838A
:100BE300D0E0F8D0E0320E000975F0108E1A8F1B9A
:100BF30085821F85831E851882851983E0CEA3E035
:100C0300CF851F82851E83EBC9EAC8EDCBECCAC32F
:100C1300E833C8E933C9EA33CAEB33CBC3EA9EF5F9
:100C23001DEB9FF51CB35004AB1CAA1DEC33CCED9C
:100C330033CDD5F0DAAE1AAF1B22121271601C123B
:100C4300129E60171212E770071212DD7001D32291
:100C5300C0D01212DD7006D0D0B322C32233D0D05D
:100C6300501430E0F6C3E7960809E7960809E796BB
:100C73000809E796B32220E0D5E6970809E6970826
:100C830009E6970809E697B322D083D082ECC0E047
:100C9300EDC0E0E493A3FCE493A3FDED4C600D12DF
:100CA3000DB0EC24FFFCED34FFFD80EFE493A3FCD7
:100CB300E493A3FDED4C600D120EAAEC24FFFCEDB2
:100CC30034FFFD80EFD0E0FDD0E0FCE493A3C0E06F
:100CD300E493C0E022121271601B12129E6016127E
:100CE30012E770071212DD600CB322C0D01212DDBE
:100CF3007005D0D022C32233D0D0501330E0EBC3E1
:100D0300E7960809E7960809E7960809E796222077
:100D1300E0E4E6970809E6970809E6970809E697E5
:100D230022851983851882E0A3FEE0A3F5207808C5
:100D3300E0A3F608DFFAE0A3FFE0A3C0E0E0A3C06E
:100D4300E0E0A3C0E0E0A3C0E0E0A3C0E010AF0890
:100D53008582188583198008858218858319D2AF07
:100D6300D083D082020FEED083D082E9C0E0E49337
:100D7300A3C386F0C5F095F0F908E493A386F0C504
:100D8300F095F0700BE493A3C3994005E904800246
:100D9300A3E475F002A42582F582E5F03583F5839B
:100DA300D0E0F9E493A3C0E0E493C0E022C0E0C341
:100DB300E49396087401939618400FE493667008C1
:100DC30008740193661870007019A3A3C3E4939683
:100DD300087401939618A3A3400DD0E0D0E0D0E0AF
:100DE300020CC8A3A3A3A3A3A3D0E022C0E074F280
:100DF300120ADAE589A2E1500312214A758900C279
:100E0300C57F01020B91C0E074F2120ADAE58BA2EE
:100E1300E0500312214A758B00C2E880E474048019
:100E23000474028000CCC0E0EDC0E0E518C39CCCA4
:100E3300AD1950011D10AF068C188D1980068C1842
:100E43008D19D2AF120F6AD0E0FDD0E0FC227402FC
:100E53008000CCC0E0EDC0E0E518C39CCCAD1950D8
:100E6300011D10AF068C188D1980068C188D19D2B0
:100E7300AF120F48D0E0FDD0E0FC221212716025C2
:100E830012129E60201212E770030212DD08080896
:100E9300E76670101819E766700A1819E766700498
:100EA3001819E76622F422C0E0C0F088F0E49366E4
:100EB30070080874019366187000A8F0A3A3700B60
:100EC300D0F0D0E0D0E0D0E0020CC8A3A3D0F0D0A3
:100ED300E022D083D082CCC0E0E493A36006120F5B
:100EE300C91470FAE493A360061210D01470FAD0F8
:100EF300E0FCE493A3C0E0E493C0E022C008C3E0B5
:100F030096F50808A3E096420808A3E0964208086D
:100F1300A3E0964208A2D265D033E5087001D3D08E
:100F23000822C0E074F2120ADAA2AFE433FED2AFB1
:100F3300C2C0E5D1A2E450031221ECEEA2E092AFCD
:100F43007F01020B91CAC0E0E493A3C582CCC582A2
:100F5300C583CDC583F0A3C582CCC582C583CDC56A
:100F630083DAE5D0E0CA22CAC0E0E0A3C582CCC5DB
:100F730082C583CDC583F0A3C582CCC582C583CD8D
:100F8300C583DAE6D0E0CA22C008C3E096F50808B4
:100F9300A3E096420808A3E096420808A3E096451A
:100FA300087001D3D00822700908080822601618B7
:100FB3001818C6C333C608C633C608C633C608C620
:100FC30033C6D5E0EA22C0E0E493A3D39C5010E4F7
:100FD30093A3C39C400AD0E0D0E0D0E0020EF2A37A
:100FE300A3A3D0E022C09FF59FE473D09F22D083B8
:100FF300D082C09FE493C0E0740193C0E074029375
:10100300F59F222518F58210AF08F518400215192F
:101013008008F51840021519D2AF8519832274048C
:10102300800A74038006740280027401C0E0F40431
:10103300121006D0E01212AD22C0D0251810AF084E
:10104300F518500205198008F51850020519D2AF9A
:10105300D0D022BB0102E722C082C08389828A8367
:10106300BB0003E08002E493D083D08222601608A1
:101073000808C6C313C618C613C618C613C618C6AF
:1010830013C6D5E0EA22C0E0C0D0E8C0E0E5A8D2AC
:10109300AFC2C7A2E792AFD0E0F8D0D0D0E032C35E
:1010A300E0C696F608A3E0C696F608A3E0C696F651
:1010B30008A3E0C696F622251810AF08F5184002DB
:1010C30015198008F51840021519D2AF22C0E0E4C3
:1010D30093A36C7009D0E0D0E0D0E0020EF2A3A39A
:1010E300D0E022C3E09608A3E09608A3E09608A305
:1010F300E096A2D265D03322E066701008A3E066C2
:10110300700A08A3E066700408A3E06622E766702D
:10111300100809E766700A0809E76670040809E71A
:101123006622181818E6084608700AE608C33370E2
:1011330005E633F4220822191919E7094709700A49
:10114300E709C3337005E733F4220922C3E096F0BD
:1011530008A3E096F008A3E096F008A3E096F02237
:10116300181818E4C396F608E496F608E496F60809
:10117300E496F622E026F608A3E036F608A3E03666
:10118300F608A3E036F622E026F008A3E036F008DE
:10119300A3E036F008A3E036F022E627F60809E6D6
:1011A30037F60809E637F60809E637F622C0E0E81D
:1011B300C0E0E58124FCF8E6A2E7D0E0F8D0E02225
:1011C300E657F60809E657F60809E657F60809E66A
:1011D30057F622E056F008A3E056F008A3E056F0D5
:1011E30008A3E056F022700422600D18C6C333C66C
:1011F30008C633C6D5E0F41822E647F60809E647E1
:10120300F60809E647F60809E647F622E056F60827
:10121300A3E056F608A3E056F608A3E056F622C666
:10122300F4C608C6F4C608C6F4C608C6F4C622C384
:10123300E09608A3E09608A3E09608A3E09622C3ED
:10124300E7960809E7960809E7960809E7962275DD
:10125300D00075814075180175190300020B39E63A
:10126300F008A3E6F008A3E6F008A3E6F022E608F8
:101273004608C3134608336002E633F422600C08C1
:10128300C6C313C618C613C6D5E0F422E0F608A3F6
:10129300E0F608A3E0F608A3E0F622E7094709C34E
:1012A300134709336002E733F422CAC0E0E6F0A330
:1012B30008DAFAD0E0FA22EAF0A3EBF0A3ECF0A309
:1012C300EDF022E0FAA3E0FBA3E0FCA3E0FD22E5BE
:1012D300C754F84401F5C7790122E7C33319471905
:1012E30047194722E6C333184618461846222518DD
:1012F300F582E43519F58322C2AF75D69F0200004B
:1013030022120FF1692F00120FF1213000120FF199
:10131300E93000120FF1A93100120FF1ED31001283
:101323000FF1123200120FF1553200120FF1A232F7
:1013330000120FF1FA3300120FF1803400120FF193
:101343009E3400120FF1C83400120FF1E234001280
:101353000FF1F13400120FF1FC3400120FF1BC3520
:1013630000120FF1153600120FF1D73600120FF1EC
:10137300DF3600120FF1A33700120FF10F380012FE
:101383000FF13A3900120FF14B3900120FF1C13945
:1013930000120FF1533A00120FF1AB3A00120FF1A2
:1013A3006B3B00120FF1923B00120FF1A43B0012B2
:1013B3000FF1F73B00120FF1343C00120FF1413CE7
:1013C30000120FF1C43D00120FF1193F00120FF18B
:1013D3004B3F00120FF1DE3F00120FF117400012D6
:1013E3000FF1634000120FF17F4100120FF1C84368
:1013F30000120FF1D34300120FF1DE4300120FF17D
:10140300E84300120FF1F34300120FF10D440012F1
:101413000FF1174400120FF1214400120FF12C4475
:1014230000120FF1544400120FF1AF4400120FF1F8
:10143300D34400120FF1F74400120FF15545001287
:101443000FF1994500120FF1B54500120FF12C462B
:1014530000120FF1644600120FF1B04600120FF1B3
:101463000D4700120FF1C74700120FF1AB490012ED
:101473000FF1044A00120FF1344B00120FF15A4BD3
:1014830000120FF1E34C00120FF15F5000120FF145
:10149300315200120FF1FA5300120FF1A754001248
:1014A3000FF1125600120FF1B15600120FF1F6565A
:1014B30000120FF1605700120FF16F5700120FF176
:1014C300F65900120FF1A85B00120FF1155C001220
:1014D3000FF1F45C00120FF10D5E00120FF18A5F41
:1014E30000120FF1A95F00120FF1FE5F00120FF15E
:1014F300036100120FF12B6100120FF183610012DF
:101503000FF1626200120FF1A66200120FF1F16295
:1015130000120FF15C6300120FF19D6400120FF1D2
:10152300016500120FF14F6600120FF1AF68001250
:101533000FF1E06800120FF1986A00120FF1ED6AE3
:1015430000120FF1F16B00120FF18E6C00120FF10C
:10155300E76C00120FF19A6D00120FF13C6E00124E
:101563000FF1DC6E00120FF1816F00120FF17C8915
:1015730001120FF1BB8901120FF1028C01120FF15D
:101583004C8C01120FF1678D01120FF1D78D0112EF
:101593000FF10C8E01120FF1808F01120FF10392E4
:1015A30001120FF12C9301120FF1C29301120FF1EB
:1015B300CA9C01120FF15F9D01120FF146A00112A7
:1015C3000FF139A101120FF19AA101120FF1B6A285
:1015D30001120FF19BA401120FF1ACA601120FF13E
:1015E30016A701120FF1E8A701120FF19FA801122C
:1015F3000FF1A9A801120FF1D7A801120FF194A9B5
:1016030001120FF16BAA01120FF132AB01120FF1AC
:10161300E4AB01120FF10DAC01120FF12FAC01126B
:101623000FF185AE01120FF15DAF01120FF1A1AF02
:1016330001120FF109B001120FF1C1B001120FF144
:10164300F3B001120FF137B101120FF16DB10112B5
:101653000FF1B9B101120FF10EB201120FF113B272
:1016630001120FF166B201120FF18BB201120FF1E9
:101673009AB301120FF1FEB301120FF16EB401120E
:101683000FF1FAB401120FF1C7B701120FF1ABB8A2
:1016930001120FF12EBA01120FF164BC01120FF106
:1016A30012BD01120FF1C2BD01120FF103C00112ED
:1016B3000FF1A6C001120FF1EDC001120FF199C293
:1016C30001120FF1ADC201120FF1B7C201120FF1F6
:1016D300DFC201120FF1EBC201120FF10AC30112B3
:1016E3000FF1EFC401120FF126C501120FF130C53E
:1016F30001120FF166C501120FF1B5C601120FF108
:10170300F9C601120FF1A1C701120FF184C801122A
:101713000FF12FC901120FF17BCA01120FF179CB1F
:1017230001120FF11FCC01120FF1AFCC01120FF117
:10173300C6CC01120FF1FDCC01120FF107CD01123E
:101743000FF112CD01120FF130CD01120FF174CD53
:1017530001120FF1D1CD01120FF1F6CD01120FF1EC
:1017630010CE01120FF19CCE01120FF1B9CF01126D
:101773000FF126D001120FF10DD101120FF134D167
:1017830001120FF1A8D101120FF123D201120FF1AF
:1017930027D301120FF11DD401120FF1CCD4011282
:1017A3000FF1DFD501120FF17BD601120FF108D72C
:1017B30001120FF1E6D701120FF11ED801120FF13A
:1017C30076D801120FF13FD901120FF160D901123E
:1017D3000FF1E7D901120FF10BDA01120FF12DDA34
:1017E30001120FF176DA01120FF18CDC01120FF105
:1017F30073DD01120FF124DE01120FF15AE0011221
:101803000FF1AAE001120FF1EAE001120FF12CE14E
:1018130001120FF188E101120FF1B6E101120FF18C
:10182300DAE101120FF12DE201120FF15BE2011275
:101833000FF194E201120FF1E9E201120FF14FE30C
:1018430001120FF1A3E401120FF1C6E601120FF129
:1018530033E701120FF15CE701120FF1E7E7011221
:101863000FF14EE801120FF199E801120FF1BDE8F3
:1018730001120FF1E1E801120FF13CE901120FF13E
:1018830057E901120FF110EA01120FF1048F04124C
:101893000FF1438F04120FF1788002120FF1BE8013
:1018A30002120FF19E8102120FF1A08202120FF1B8
:1018B300A38302120FF12F8502120FF18D850212FD
:1018C3000FF14A8602120FF1688702120FF1D987CE
:1018D30002120FF1158802120FF1638802120FF141
:1018E3006D8802120FF1B18802120FF10D890212F5
:1018F3000FF1A88902120FF1258A02120FF1F48A5F
:1019030002120FF18D8B02120FF1AD8B02120FF148
:10191300E38B02120FF1148C02120FF1D58C021219
:101923000FF1E58C02120FF1398D02120FF1548D74
:1019330002120FF1668D02120FF16F8D02120FF179
:10194300C98D02120FF1258E02120FF1718E021250
:101953000FF18C8E02120FF1BD8E02120FF1DA8E8F
:1019630002120FF1E68E02120FF15A9002120FF1DA
:10197300739002120FF1DA9002120FF1ED9002123E
:101983000FF1FB9002120FF1AF9102120FF193923C
:1019930002120FF1999302120FF1239402120FF125
:1019A3002D9402120FF19A9402120FF1B1940212C4
:1019B3000FF1E39402120FF11C9502120FF14695F9
:1019C30002120FF1A79502120FF1C79502120FF140
:1019D300E59502120FF12B9602120FF151970212A5
:1019E3000FF19E9702120FF1CD9702120FF1439858
:1019F30002120FF16B9802120FF1A49802120FF169
:101A0300B29802120FF10A9902120FF159990212B8
:101A13000FF1989902120FF1C89902120FF1F4997C
:101A230002120FF1FF9902120FF11D9A02120FF128
:101A3300DF9A02120FF1E99A02120FF1249B0212AC
:101A43000FF13A9B02120FF18F9B02120FF1A39B2E
:101A530002120FF1B19C02120FF1C49C02120FF19A
:101A6300D99C02120FF17B9D02120FF1FE9D02120F
:101A73000FF1BC9E02120FF1C79E02120FF1F39FEA
:101A830002120FF10FA002120FF161A002120FF167
:101A9300A0A002120FF1B5A002120FF117A10212BA
:101AA3000FF1A6A102120FF1F1A102120FF142A44C
:101AB30002120FF1C0A402120FF135A502120FF1A9
:101AC30057A702120FF16FA702120FF172A70212AA
:101AD3000FF17EA702120FF192A702120FF19AA73C
:101AE30002120FF1CDA702120FF17DA802120FF11E
:101AF300F3A802120FF166A902120FF11AAA021239
:101B03000FF1CFAA02120FF1EEAA02120FF18EAB60
:101B130002120FF19AAB02120FF1C5AB02120FF1D1
:101B2300C8AB02120FF132AC02120FF15AAD02121E
:101B33000FF132AE02120FF1BDAE02120FF1D6AFAA
:101B430002120FF193B002120FF1CCB002120FF197
:101B5300FDB002120FF1BBB102120FF1EBB1021291
:101B63000FF1C6B202120FF15FB302120FF1EAB323
:101B730002120FF19BB402120FF11EB502120FF104
:101B830050B502120FF191B502120FF181900412B8
:101B93000FF18D9004120FF165F502120FF1CAF5E2
:101BA30002120FF107F602120FF156F602120FF1AD
:101BB3006CF802120FF14FFA02120FF1B9FD021283
:101BC3000FF1F4FD02120FF116FE02120FF179FE6E
:101BD30002120FF1ADFE02120FF1D0FE02120FF14D
:101BE300FDFE02120FF159FF02120FF10FFD031256
:101BF3000FF127FD03120FF142FD03120FF159FDFF
:101C030003120FF172FD03120FF194FD03120FF192
:101C1300B9FD03120FF1E9FD03120FF115FE0312D3
:101C23000FF121FE03120FF12AA103120FF1A8A154
:101C330003120FF1DEA103120FF14AA203120FF1F7
:101C43002AE402120FF1D9A303120FF11EA4031207
:101C53000FF1ACA403120FF105A503120FF132A685
:101C630003120FF144A703120FF1A1A703120FF1FF
:101C73000DA803120FF16EA803120FF1AFA8031200
:101C83000FF15CA903120FF16EAA03120FF199AAC7
:101C930003120FF1E4AA03120FF12BAB03120FF19E
:101CA300BDAB03120FF178AC03120FF19983041249
:101CB3000FF1C98304120FF1B92E00120FF1E58D54
:101CC30004120FF1608E04120FF1EFAC03120FF147
:101CD300F9AC03120FF145AD03120FF1B3AD0312CB
:101CE3000FF1D4AD03120FF184AE03120FF118B14B
:101CF30003120FF121B103120FF174B103120FF1AB
:101D03009DB103120FF104B203120FF195B2031246
:101D13000FF1D7B203120FF121B303120FF180B306
:101D230003120FF1ACB303120FF13DB403120FF121
:101D33007CB403120FF1BBB403120FF1F0B403121E
:101D43000FF102B503120FF114B503120FF133B5FE
:101D530003120FF13CB503120FF1F2B503120FF1A9
:101D630032B603120FF13C8B04120FF1DDFA0312AA
:101D73000FF113FB03120FF15CFB03120FF1ACFC29
:101D830003120FF14AEA01120FF189EB01120FF16D
:101D9300C5EB01120FF184ED01120FF1ADED01124C
:101DA3000FF140F001120FF184F001120FF10DF267
:101DB30001120FF1A5F201120FF10DF301120FF150
:101DC300AEF301120FF1F0F301120FF130F401122F
:101DD3000FF1BBF501120FF12BF701120FF150F9BF
:101DE30001120FF17EF901120FF1A5F901120FF1A2
:101DF300AEF901120FF135FA01120FF153FD011281
:101E03000FF1619004120FF1779004120FF1B98E64
:101E130004120FF1AFEA03120FF1C2EA03120FF13A
:101E23005FEB03120FF19AEB03120FF1B5EB031201
:101E33000FF1DAEB03120FF11FEC03120FF150EC69
:101E430003120FF181EC03120FF107EE03120FF1EE
:101E5300868604120FF1BC8604120FF1D886041291
:101E63000FF11A8704120FF12A8704120FF1BF87AB
:101E730004120FF1C98704120FF1E18704120FF165
:101E8300CCF003120FF13CF103120FF1D0F1031266
:101E93000FF1D3F103120FF1FFF103120FF10080E1
:101EA30003120FF1558003120FF13E8103120FF15C
:101EB300D78103120FF1218203120FF183820312E0
:101EC3000FF1978203120FF1798403120FF1F48457
:101ED30003120FF11E8503120FF1F78603120FF1A0
:101EE300128703120FF1618703120FF17787031231
:101EF3000FF1848703120FF1B88703120FF1D18713
:101F030003120FF1718803120FF1CB8803120FF143
:101F1300198903120FF12C8A03120FF19D8C0312FE
:101F23000FF1CB8C03120FF1598D03120FF1BA8D00
:101F330003120FF1BF8D03120FF1FB8D03120FF18B
:101F43005D8E03120FF12D8F03120FF1528F0312C7
:101F53000FF15C8F03120FF15F8F03120FF1CE8F1E
:101F630003120FF1E98F03120FF1FC8F03120FF12C
:101F7300289003120FF1639003120FF1669003127E
:101F83000FF1A29003120FF16B8E04120FF1838EE7
:101F930004120FF197BF03120FF1E6BF03120FF103
:101FA30088C103120FF146C303120FF18EC303124C
:101FB3000FF1B0C403120FF1E1C503120FF103C611
:101FC30003120FF15FC603120FF1E1C603120FF103
:101FD30051E402120FF17CE402120FF169E50212DF
:101FE3000FF1EEE502120FF157E602120FF1A3E62D
:101FF30002120FF122E702120FF1B4E702120FF1FE
:1020030040E802120FF182E802120FF1EEEC021225
:102013000FF16EEE02120FF13EEF02120FF165EFB8
:1020230002120FF1C6F102120FF152F202120FF176
:102033006CF302120FF14BF402120FF1CDF4021202
:102043000FF1CD6F00120FF1877000120FF1F970CD
:1020530000120FF1957100120FF1057200120FF1CA
:10206300BE7400120FF1957500120FF10276001283
:102073000FF17F7700120FF1497800120FF1907979
:1020830000120FF1A37A00120FF13C7B00120FF143
:10209300027C00120FF1637D00120FF1B77D001275
:1020A3000FF10F7E00120FF15A7E00120FF1BC7E6A
:1020B30000120FF1557F00120FF1BD7F00120FF1D7
:1020C300C97F00120FF1008004120FF13180041256
:1020D3000FF1EB8004120FF1518104120FF19FEE07
:1020E30003120FF12BF003120FF1EC8F04120FF117
:1020F300FD8F04120FF1DA8104120FF1E88104124B
:102103000FF1BF9004120FF14F8D04120FF15F8D89
:1021130004120FF17A8D04120FF1DB8D04120FF10B
:10212300F5FE03120FF17AFF03120FF1DEFF031224
:102133000FF12A8A04120FF14C8A04120FF1B68AA6
:1021430004120FF1C18A04120FF1058B04120FF16F
:1021530015C703120FF1A4C703120FF1B2C703127D
:102163000FF1F3C703120FF10DC803120FF18AC861
:1021730003120FF184C903120FF1A9C903120FF15E
:10218300C6C903120FF1E3C903120FF117CA0312F1
:102193000FF13CCA03120FF184CA03120FF1FFCAF5
:1021A30003120FF10FCC03120FF1A5E303120FF18A
:1021B300B3E303120FF12DE403120FF111E5031240
:1021C3000FF1CAE603120FF13F9004120FF1CECCC8
:1021D30003120FF13ACD03120FF1F9CD03120FF1F0
:1021E30003CF03120FF159D003120FF1B4D003122E
:1021F3000FF109D103120FF112D103120FF124D100
:1022030003120FF18CD103120FF19FD103120FF1BF
:1022130066D603120FF1BBD603120FF1B7D8031220
:102223000FF1E9D803120FF10BD903120FF124D9DF
:1022330003120FF13DD903120FF147DA03120FF125
:10224300E2DA03120FF1258504120FF14985041216
:102253000FF1628504120FF1958504120FF1C68503
:1022630004120FF1F48504120FF1568604120FF1D4
:10227300658604120FF16F8604120FF17C86041237
:102283000FF18AF303120FF1B0F303120FF1EDF321
:1022930003120FF1FCF303120FF11BF403120FF1FE
:1022A30083F403120FF18CF403120FF1EBF4031216
:1022B3000FF10FF503120FF1CEF503120FF1DBF55A
:1022C30003120FF1ECF503120FF14D8F04120FF10E
:1022D3006A8F04120FF159DB03120FF1B7DC0312FB
:1022E3000FF1C4DC03120FF1D7DC03120FF1F6DC9C
:1022F30003120FF10CDD03120FF120DD03120FF1B6
:1023030095DD03120FF1FADD03120FF1AADE0312BA
:102313000FF17FDF03120FF18FDF03120FF19EDF47
:1023230003120FF1168C04120FF13A8C04120FF101
:10233300628C04120FF18A8C04120FF11AF6031245
:102343000FF141F603120FF162F603120FF1C7F614
:1023530003120FF180F803120FF199F803120FF132
:10236300A5F803120FF1B9F803120FF1D7F803120E
:102373000FF1E1F803120FF1EBF803120FF1FEF87E
:1023830003120FF151F903120FF18AF903120FF13E
:10239300B9F903120FF107FA03120FF156FA0312F8
:1023A3000FF171FA03120FF17BFA03120FF18CFA9A
:1023B30003120FF1D2FA03120FF1A5FF02120FF16C
:1023C3005BB603120FF185B603120FF1A1B6031228
:1023D3000FF1B4B603120FF1CAB603120FF127B708
:1023E30003120FF15AB703120FF196BB03120FF149
:1023F300BCBC03120FF1EFBC03120FF13BBD031280
:102403000FF167BE03120FF18FBE03120FF1A4BECB
:1024130003120FF1B4BE03120FF1F8BE03120FF152
:1024230059BF03120FF169BF03120FF1E4870412BE
:102433000FF1FF8704120FF1288804120FF142886D
:1024430004120FF1678804120FF1868804120FF14A
:102453009E8804120FF1CC8804120FF1E68804124F
:102463000FF1BCFF01120FF12FE703120FF136E753
:1024730003120FF142E803120FF172E803120FF196
:1024830098E803120FF1BBE803120FF1DDE8031222
:102493000FF117E903120FF17DE903120FF1B6E90A
:1024A30003120FF102EA03120FF12FEA03120FF1E5
:1024B3004FEA03120FF1D4FD01120FF1ECFD0112EB
:1024C3000FF1DAFE01120FF1B9FF01120FF11789B3
:1024D30004120FF1898904120FF1C78904120FF155
:1024E300088A04120FF1D7DF03120FF1F6DF03128C
:1024F3000FF145E003120FF161E003120FF192E0D7
:1025030003120FF1A2E003120FF1AFE003120FF178
:10251300BCE003120FF1A8E103120FF1E6E103128D
:102523000FF1F0E103120FF100E303120FF10BE3DC
:1025330003120FF11DE303120FF126E303120FF150
:1025430030E303120FF1A9D103120FF1EED50312F9
:102553000FF1FCD503120FF1BF8F04120FF1AF8CF3
:1025630004120FF1D98C04120FF1898F04120FF1A9
:10257300179004120FF1A19004120FF1DB900312D4
:102583000FF1F99503120FF10CE402120FF1D8E2E7
:1025930002120FF135E202120FF1E8E002120FF11D
:1025A30093DE02120FF129DE02120FF1E1DD0212B6
:1025B3000FF153DD02120FF146DD02120FF140DA83
:1025C30002120FF1682E00120FF1412E00120FF1CB
:1025D300A2D702120FF16BD602120FF1FD2D0012DA
:1025E3000FF1C22D00120FF1BFD502120FF105D466
:1025F30002120FF1B5D102120FF13CD102120FF109
:10260300E3D002120FF173D002120FF14AD002127B
:102613000FF12ACE02120FF1F6CD02120FF1C3CD44
:1026230002120FF1A7CD02120FF1C0CC02120FF16B
:1026330078CC02120FF1C3CA02120FF143CA02127D
:102643000FF140CA02120FF141C902120FF10FC973
:1026530002120FF14CC802120FF177C602120FF1EA
:1026630008C602120FF19C2D00120FF1832D0012E8
:102673000FF12F2D00120FF18B2C00120FF1012CF3
:1026830000120FF1DAC502120FF1D7C502120FF1D2
:10269300C4C502120FF1A02B00120FF16FC5021275
:1026A3000FF15EC502120FF150C402120FF11AC4EA
:1026B30002120FF14E2B00120FF11E8404120FF1C0
:1026C300C8C302120FF169C302120FF138C3021219
:1026D3000FF100C002120FF1C0BF02120FF1B4BF1D
:1026E30002120FF114BF02120FF154BE02120FF1C6
:1026F300D6BB02120FF167B902120FF125B902120C
:102703000FF1F9B702120FF1AEB702120FF1EDB6E6
:1027130002120FF130B602120FF1C6B502120FF119
:1027230000B602120FF13C2B00120FF1BDA3030000
:10273300000080FBE4730001363601010001020151
:102743000001030100010401060605020000070160
:1027530000340801000F090401010D0100FF0E08F8
:10276300000017020000190100FF1A0100011B01FC
:1027730000FE1C0100081D0200001F0100012001D2
:102783000001210200002301000F240200002601A2
:10279300000127010008280200FF2A0100072B017E
:1027A30002402C0100002D0100012E0100012F0128
:1027B30000FF30010B1C310800003A0100083B0107
:1027C300000F2F01000003027102300160021102A9
:1027D30070020102020202028002100261023A0048
:1027E3004100630273027202620243020002130297
:1027F300380000020002040212020002000200027A
:10280300000204020402370037003C0244020002C3
:102813003900000200026502000235028102000253
:10282300050282028302000203007100300160008E
:102833001100700031022003500480001000610079
:102843000000140063007300720062004300000084
:102853001300060000000000040012000000000046
:102863000000000004000400370037003C0244006D
:10287300000000000000000065000000350081003A
:10288300000005000000830000000304710402043B
:10289300600411047004020402040104020410041D
:1028A30061040004140463047304720462044304A3
:1028B30000041304060400040004040412040004C6
:1028C3000004000400045104640000040004000434
:1028D30044040004000400040004650400043504F7
:1028E30081046400050400048304000401037103EC
:1028F3000103010301030103010322030203010393
:10290300100300030003000300030003000300039C
:10291300420300032403060300030003040312031A
:1029230025032303250323030403040300030003F4
:102933000003440300030003230300036503210092
:1029430035038103000305030003000300030101B2
:1029530071010101010111010101310101010101B4
:102963008001100161013B001400630173017201D6
:10297300620143010001130106013D013500040119
:1029830012010001000100010001040104013301EF
:1029930033013C01440132013600000100016501AD
:1029A300000135008101000105018201830100015D
:1029B30036000100060000000F00000000000000C8
:1029C30000000000000003FFFF00000403FFFF00FE
:1029D30000FFFF0FF4010005C404032000010003FE
:1029E3000B000000000000000003010F00005A204C
:1029F30013001E2001005A200200E81F0300EE1FEF
:102A03000400F41F0500FA1F06000620FFFF000064
:102A130001B61506E01508DA150BF8151032150284
:102A2300BC1505CE1507C2150C98150DAA15FF0088
:102A33000003EAF5E5D5D5C5B5A5959585857575E5
:102A430065655555454535352525151505D61906AD
:102A53001ADC19E219001AF419EE190C1A121A18D1
:102A63001A241AE819D019CA1900160F00000B15F9
:102A73000B020002220F32000006C61AD81ADE1A11
:102A8300A019E41A9A19A619DA18D41810191619E4
:102A93000A19C218261B441B4A1B2C1B381B321B4A
:102AA300303016181920231A1C1E300C0E020B048A
:102AB3000B0A0708000F00383C3E363B3B352B43DF
:102AC3002C303017181921301B1D1F300001191627
:102AD3001816161523030000034948424D181725FD
:102AE30005021A1BEA1AF01AFC1AF61AFA191E1A28
:102AF3003E1B2A1A301A020402010101010902E6EF
:102B030018EC18E0181C19000000000000F218046B
:102B13001900BE040A150004007F00E8030C002816
:102B230000000000000308100C0A03080900040059
:102B330001FF1E1E0C05040F08C082C0838A828B0E
:102B430083E0D2E7F0121F52023BF0C082C08379C8
:102B530000123008125F59C082C083900334124CB4
:102B6300DFD083D082C3E09CA3E09D500C12662D7E
:102B7300FAA3E0122B7F600109023BF0FBEA75F038
:102B83000BA4FAA8F075F00BEBA428FB900336E036
:102B93002AF8A3E03B8882F583E0540F2274F712EE
:102BA3000A6E89081230081230AEACF075F00BE9EA
:102BB300A42CF9900336E028FEA3E039FF740165E5
:102BC3000860067402650870208A828B8312309A2B
:102BD300123FD074026508701B122F591230E17036
:102BE300138E828F83E4F0800BEA2403FCEB123014
:102BF3007C123088EEFAEFFB122726023F2D74F485
:102C0300120A6E126F5479008E828F83E060768988
:102C13000A890B8065E50A75F00BA4FAA8F075F034
:102C23000BE50B122B8C7046E50A75F00BA4F8AA82
:102C3300F075F00BE50B1230C08E828F83E08508B0
:102C4300828509831231A2850882850983A3123FF5
:102C5300D0EE2403FCEF123085123DAE1259D3AAF5
:102C630008AB0912272679019003341253E8E50AC9
:102C73002401F50AE50B3400F50B122F61E50A9ADE
:102C8300E50B9B409002417A74F5120A6EEAFEEB63
:102C9300FF740B1212F1123DB3750A01EC4D602B58
:102CA300EC126F70ED125F59123FC879011226962C
:102CB300E5084509606F850882850983A3126F5E65
:102CC3007902AA08AB09122696805AE508450960DD
:102CD3002B125F5D124627123DAF1230CB700CEE04
:102CE300FAEFFB12267EE9F50A80CBEE2403FA12F3
:102CF300300370317903EEFAEFFB80CA8E828F8343
:102D0300A3E064FE7003A3E0F4700BEE24030A0A4D
:102D13000A123003700CEEFAEFFB12267EE9F50A75
:102D23008003750A00A90A7F03020D2474F7120AAF
:102D33006E900334123F3DEA4B602FEA75F00BA40B
:102D4300FAA8F075F00BEBA428FBEAFEEBFF121DCB
:102D530078900336123F3D90033612522D6012EEE7
:102D6300FCEFFD7900121CDC8007900336E4F0A32E
:102D7300F0023F2D900334124997C3EE98EF992246
:102D8300C082C083EC4D60051224E080097C087D7D
:102D9300007900121CDC023BF074F6120A6E790013
:102DA300EA4B6018780088081262A0EB126629606B
:102DB300047901780808E8C3940840EA023FD9740B
:102DC300F7120A6E74F31210BAECFEEDFF85188247
:102DD300851983E4F0041212F1EAF0A3EB125759B8
:102DE30074031212F1AC82AD83EEFAEFFB12266C80
:102DF300EEFAEFFB122666023F2874F7120A6E748E
:102E0300F31210BAECFEEDFF851882851983E4F006
:102E1300EAFCEBFD74031212F112319B74011212DE
:102E2300F1123FC48E828F83123FD074FE68700309
:102E330074FF696004790180027900023F2874F706
:102E4300120A6EEAFEEBFF122E9F7014122EAA8E48
:102E5300828F83E0F4F88A828B83E058F01227266E
:102E6300A908023F2D74F7120A6EEAFEEBFF7508FC
:102E7300008E828F83E06022122E9F701D122EAA75
:102E83008A828B83E08F838E82F8E058700CE0F89F
:102E93008A828B83E048F012272680C41226B4E985
:102EA300F5087401650822126F691230B2122FF40B
:102EB300FAA3E039FB2274F4120A6E8A088B097CA8
:102EC300007D00122F59123088123019126F5B796E
:102ED30000850882850983A3E064FE7003A3E0F400
:102EE30060717E007F008062EEFAEF122B7F6057E5
:102EF300EEFAEFFBEA75F00BA4FAA8F075F00BEB12
:102F0300A428FB900336E02AF50AA3E03BF50B85E2
:102F13000882850983A31256A7850A82850B83A39A
:102F2300E06A7003A3E06B701EE50A2403FAE50B65
:102F3300123004700AE50A2403FCE50B12308512F3
:102F4300300D7901125F6F1238F8122F61EE9AEF8C
:102F53009B409502417AEA24030A0A0AEB22900372
:102F630034125B46C32274F3120A6E8A088B098AF1
:102F7300828B83A3126F5E123008126F5B750C0095
:102F8300122F5912300470547E007F008049122F93
:102F9300E6FAA3E0398A82F583E0540F6036122FF4
:102FA300E6F50AA3E039F50BE50A2403FCE50B1269
:102FB300308F3400FB1224DAE964017017850A822A
:102FC300850B83A3125C07A3123FD012300D750C3F
:102FD30001125F6F1238F8122D7740B2A90C7F05EA
:102FE300020D24EEF8EFF9E875F00BA4F8122FF4B4
:102FF30022AAF075F00BE9A42AF9900336E02822FF
:10300300EF1230DB22126F6FEB22123019125F6A5C
:10301300EEF0A3EFF022E508126F70E5092274F5D4
:10302300120A6EEAFEEBFF8E828F83A3126F5E7C21
:10303300007D00EE24030A0A0AEF123088EEFAEF4D
:10304300FB1226B4E9F50A7401650A7029126F6947
:103053001230AEAAF075F00BE91230C0850882F584
:103063008312309A1230CB700DE5082403FCE50976
:1030730012307C123088022D283400FDEE2403FA2E
:10308300EF2212308F3400FB12266C223400FDE550
:10309300082403FAE50922A312309F221230A32247
:1030A300E0F8A3E0F98E828F83A3221230B2223498
:1030B30000F58312499BE875F00BA4F822122FFA4E
:1030C300F508A3E039F50922E8F0A3E9F0E50824BF
:1030D30003FAE5091230DB221230E16401223400E5
:1030E300FB122666E92274F3120A6E74E61210BA12
:1030F300126F54750C01750800750900750A007587
:103103000B00851882851983E4F0EE2403FCEF3469
:1031130000FD74031212F112319BE96401702374F0
:103123000B1212F1123FC874011212F11256AB7056
:1031330003A3E06960518518828519838582088518
:103143008309740D1212F1E41231A2740E1212F1FA
:10315300123FD0740D1212F1AA82AB83121CB8E98C
:103163006401700B740D1212F185820A85830B784A
:103173000A121029AC08AD09EEFAEFFB1226787497
:103183000212103CE9F50CEEFAEFFB1225C4A90C70
:10319300741A12103C022FE112346E12130422121D
:1031A3003F3812499722C082C08378007900800398
:1031B300123299122F61E89AE99B5029E8FAE9FB48
:1031C300EA75F00BA4FAACF075F00BEBA42CFB90B2
:1031D3000336E02AFCA3E03B8C82F583E0540F70B6
:1031E300CF790080027901023BF0C082C083902B2B
:1031F300181249EDEC75F012A4FCA8F075F012ED6D
:10320300A428FD79FF7AF47B0B121CDC023BF074DB
:10321300F7120A6EE9FEEAFF7A007B007800790074
:103223008028E8FCE9FDEC75F012A4FC85F0087534
:10323300F012EDA425081236AEC39E400AE0FCEF5F
:10324300C39C40031237CD1232991236A240D302E7
:103253003F2DC082C0837800790080031232991217
:10326300328D501F1236B2F470F2E875F012A4F8E2
:10327300AAF075F012E9A42AF974F428FA740B3948
:10328300FB80047A007B00023BF0902B181237631B
:10329300C3E89AE99B22E8240108E93400F922747F
:1032A300F0120A6E74F31210BA8A0A8B0B8C0C8D0F
:1032B3000D8908EC450D6016AA0CAB0D1213528A4A
:1032C3000E8B0FAE0EAF0FEE4F600302336012137F
:1032D300288A0E8B0FA80EA90FE8FEE9FFE84960C4
:1032E3007C902B261233C260227403650860067437
:1032F30004650870167A047903121322902B2612A0
:1033030033D940077A007B000233BF902B2412335A
:10331300C2601B74016508600674026508700F7A49
:10332300027901121322902B241233D950D6851817
:10333300828519837401F01212F11259D3AC0CADCA
:103343000D74031212F1123467740B1212F1123D51
:10335300BB1243B0E41259BB12181A8004EE4F603B
:103363004A780074FF2508C39404500278048E82BF
:103373008F831259D38E828F83A3A3A3A3E508F06F
:10338300E88E828F83A3A3A3A3A31259DB1208A5FC
:1033930012377A8E828F83A3A3A3A3A3A3A3F012CE
:1033A30037711212C6125F531212BA1233C7400595
:1033B300901150E4F01216F4EEFAEFFB0249A11259
:1033C3005AF549227A047900121322902B181266B7
:1033D3000FEA98EB99221233F275832B758218E466
:1033E30093C398F8A3E49399F9C3EA98EB9922E479
:1033F30093F8740193F92274F2120A6E74F31210A3
:10340300BA8A088B09ECFEEDFF750A00EEFAEFFBB2
:103413001213528A0C8B0DA80CA90DE849603E8843
:10342300828983E065087004A3E06509602F8882C0
:103433008983A3A3A3A3E0C394055021125E01854E
:1034430018828519837401F01212F1125E05EEFCE5
:10345300EFFD74031212F1123467750A01A90A749D
:103463000D02549F12346E12131022AA82AB8312E0
:10347300266C851882851983AA82AB832274F6127F
:103483000A6E1234BC600FA3A3A3A3E014C3940475
:103493005004790180027900023FD974F6120A6E52
:1034A3001234BC600FA3A3A3A3E014C3940250047B
:1034B300790180027900023FD912134C8A828B83EF
:1034C300E58245832274F6120A6E1234BC600BA3A4
:1034D300A3A3A3E07004790180027900023FD9C05D
:1034E30082C083EAFCEBFD7A007B00023BEDC082E5
:1034F300C0837C007D00023BED74F4120A6E74F30A
:103503001210BAEAFEEBFF8C0A8D0BC3EC94F8EDB4
:1035130094FF4007EE4F70030235B5750800750937
:1035230000802E8518828519837401F012392012C8
:1035330012F112392E601374031212F1AC82AD83AF
:10354300EEFAEFFB1224DAE97049E5082401123799
:103553004E902B18E4125AFDE50898E5099950524C
:10356300E50875F012A4F8AAF075F012E509A42A8B
:10357300F912664260D4EE4F70A974FF650A7004B5
:1035830074FF650B60C4123910650A7004A3E0650B
:103593000B70B7E50875F012A4F508A8F075F012E2
:1035A300E509A428F50974F42508FA740B3509FB19
:1035B30080047A007B0002417574F4120A6E74F37E
:1035C3001210BA7508001213528A0A8B0BAE0AAF97
:1035D3000BEE4F602A8518828519837401123F32DE
:1035E300F8A3E0F9740B1212F11240531225CA7CAE
:1035F300127D0079FFEEFAEFFB121CDC7508011255
:1036030033C750099011507401F01216F4A908023F
:10361300417574F7120A6EE9FE74FE6A700374FF53
:103623006B78007900700580521232991236A250DD
:103633004AE8FCE9FDEC75F012A4FCAFF075F0125A
:10364300EDA42F1236AEF460E0E8FCE9FDEC75F072
:1036530012A4FC75F012EDA42FFD74F42CF5827402
:103663000B3DF583E06A7003A3E06B70BC80091225
:1036730036B214C39404401712329912328D501883
:10368300EE70EC1236B264016005E0640370E91277
:103693003901FAA3E0FB80047AFE7BFF023F2D9001
:1036A3002B181249F1C3E89CE99D2212380222E843
:1036B300FAE9FBEA75F012A4FAACF075F012EBA488
:1036C3002CFB74F82AF582740B3BF583E02212136A
:1036D30064023BF0C082C083790180F274F0120A65
:1036E3006E8A0A8B0B7A0479011213228A0C8B0DD2
:1036F300EA450D603EEAC333FAEB33FB121D788AC9
:10370300088B09AE08AF09EE4F60237AFE7BFF12E8
:10371300136A74FE6A700374FF6B601B85088285ED
:103723000983123F3DE508240212374E80E1750CF0
:103733000080047E007F00850A82850B83E50CF000
:10374300EEFAEFFB0249A6E5082407F508E509347C
:1037530000F50922902B181249F1C3EA9CEB9D2234
:10376300E493FA740193FB22121CD0740322125FB8
:1037730064E4F090892322E88E828F83A3A3A3A31A
:10378300A3A3A3A312379C740112379CA3F0EE24C6
:1037930010125F67E4F0A3F0221243BCA3A3A32299
:1037A300C082C0837A007B008004191237CD1237A0
:1037B3005750101237ECC3940550F0E970EC1237F0
:1037C300D680047A007B00023BF0EA24010AEB3442
:1037D30000FB22EA75F012A4FA75F012EBA428FBA1
:1037E30074F42AFA740B3BFB22EAFCEBFDEC75F054
:1037F30012A4FCA8F075F012EDA42812380222FDE1
:1038030074F82CF582740B3DF583E02274F7120AE9
:103813006E74F31210BA7E007F000238B4E50875A7
:10382300F017A4F8A9F01268A3FAA3E0FBEEF8EFEF
:10383300F9E875F012A4F8ACF075F012E9A42C12B3
:10384300390F6A7003A3E06B603FE50875F017A4B6
:10385300F8AAF0EA1268A2F8A3E0F974011212F1CF
:10386300E0687003A3E0696020E50875F017A4F829
:10387300EAF9747028FC740D39FD74031212F1AA6D
:1038830082AB831224DAE96014E50875F017A4F813
:10389300A9F0746E28FA740D39FB121826050890E6
:1038A3002B2AE493F8E508C3985003023820123812
:1038B300F8902B18126BE95039EEF8EFF912390131
:1038C300F47003A3E0F460E685188285198374011C
:1038D300F0EEF8EFF9E875F012A4F875F012E9A428
:1038E3002AF91239201212F112392E60C17508001B
:1038F30080AD023F28EE24010EEF3400FF22E8756D
:10390300F012A4F8AAF075F012E9A42AF9123914F6
:103913002274F428F582740B39F583E02274F628B7
:10392300F582740B39124995740B22E8F0A3E9125E
:10393300405B12130AE922C082C08390034174C81A
:10394300F0A37415F0023BF074F7120A6EEAFEEB73
:10395300FF900377E06408601BE0640460168E82C6
:103963008F83E0540364017048123DAE1244A6E015
:103973006406703D8E828F83A3A3E064FE7003A36D
:10398300E0F4602D8E828F83A3A3123FC49003685B
:10399300E0687003A3E069700BEE2415F582EF1263
:1039A30066296008121682E9F508800812168880D5
:1039B300F67508C2EEFAEFFB121D7E022E6374F455
:1039C300120A6E8A088B098A828B83E0F8A3E0FAD5
:1039D300E82AFAE43400FB121D788A0A8B0BAE0A3C
:1039E300AF0BEE4F6063850882850983E0FC7D00A1
:1039F3007900121CDC8E828F83A3A3126F5E1216D2
:103A0300C48E828F83A3A3A3A3123F3D850882851F
:103A13000983E0F8EE28F8EF3400123FCC850882E2
:103A2300850983A3E0C0E0EE240D125F56D0E0F0D9
:103A33001216D6EE240E125F56E9125608E0C0E0C5
:103A4300EE2411125F56D0E0F0EEFAEFFB02417A5A
:103A530074F4120A6E74EB1210BA8A088B098C0A7A
:103A63008D0BE9FE900377E064046005E064087061
:103A73000479C2802EA37808121262EE90037E129C
:103A83003C2E12126274051212F1E9F07404121240
:103A9300F17401F074071212F1E4F09003777402E9
:103AA300123B8B741502417774F6120A6E74EB1293
:103AB30010BAEAFEEBFF12522A6003023B4F7A0769
:103AC3007B00121D78900339123F3D12522A607811
:103AD3008E828F831212C690033A1244A91212BA2D
:103AE300126E22C0E0123B5BD0E0F0EE2405FAEF49
:103AF3003400FB8A088B098A82F583E0C0E0123B1D
:103B030056D0E0124171E0C0E0123B56A3D0E01260
:103B13003FB11212C68518828519831212BA8882A0
:103B23008983E0C0E074051212F1D0E0F0850882C9
:103B3300850983E0C0E074041212F1D0E0F0740749
:103B43001212F1123B8A80067910800279017415F2
:103B5300023FD6123B5BA322900339E0FAA3E0F5C0
:103B6300838A82A3A3A3A322C082C08312522A60A2
:103B73000D900339125B34900339E4F0A3F012156E
:103B8300F21217C6023BF0E412405B12251022C06A
:103B930082C083900338E070031220181213AC80A4
:103BA3004CC082C083900338E090114F7004E4F05E
:103BB300802D7401F0900338E0F460237C41E0C36E
:103BC30094415002E0FCECF8E0C398F0EC75F0E8A7
:103BD300A4CCA8F075F003A428FD7A801249F97AE1
:103BE3004F7B1179411224F88003121358D083D0EC
:103BF30082020FEE74F4120A6E74EB1210BA8A0882
:103C03008B098C0A8D0B9003777401123C2E1212D0
:103C13006274051212F1E9F074041212F17403F0E4
:103C230074071212F1123B8A023AA6123FBC7808BB
:103C33002274F7120A6E7C011213BE023F2D74F236
:103C4300120A6E74FC1210BAE9851882851983F082
:103C5300EAFEEBFF8C0A900375124CDF1215E68A1D
:103C6300088B09EA4509700579CA023DA98A828B46
:103C730083A3A3A3A3A3A3A3E064FE7003A3E0F41D
:103C8300700579C3023DA99003751256A712182C2B
:103C9300850882850983A3A3A3A3A3A3A3A3A3A3A3
:103CA300E004900388123F0C74021212F17402F0C4
:103CB300141212F1AA82AB831217308A0C8B0DAE49
:103CC3000CAF0DEE4F7003023DA0123DAE12461B2A
:103CD3007406F0A3A882A983900362125B71124950
:103CE30074F0EE2413125F5674011259B37440F04A
:103CF300A3E4125601A3A3123DBB123FD0EE24113D
:103D0300125F56E50AF0EEFAEFFB121388E9FE6044
:103D130003023DA29003777409F012374AAA08FB05
:103D2300794B1224F8850882850983123EFE123FDF
:103D3300D090036AE0F8851882851983E068600CE7
:103D4300E090036A12405779E11224F8901190121F
:103D53003FC4901192E0687003A3E069601A900376
:103D63003B123FD09011921256A71216EE90119269
:103D7300124CDF7A011249F97A007B049003C2E006
:103D8300F9121E38901192123DB374027808121181
:103D9300E9AC08AD09FA7B041249FB80027E10905E
:103DA300061FE4F0EEF9740402549FEE125F6522DD
:103DB300E0F508A3E0F50922123DBF221230A3A3C8
:103DC3002274F5120A6E74E21210BA8518828519EC
:103DD30083ECF0A3EDF0EAFEEBFF890874291212DD
:103DE300F1E0F509742C1212F1E0F50A900377E083
:103DF30064046005E06408700579C2023EF6742A23
:103E03001212F1E064FE7003A3E0F4700579C302BB
:103E13003EF6900377740312405779501224F874D6
:103E23002A1212F1AA82AB83794B1224F8851882E5
:103E3300851983123F05123FD0E50890036AF07499
:103E43002A1212F1123EFE123FD0E50990036212CC
:103E53003F0C74CE55094480C0E074121212F1D0A5
:103E6300E0F07401250A900388F0740F1212F174C4
:103E730002F0742A1212F1123FC474071212F1E80D
:103E8300F0A3E9123F4374101212F1123FD07405EC
:103E93001212F1E508F0741B1212F1E4F090037DA5
:103EA300740FF07A7D7B0379541224F890037C74A9
:103EB3000FF07A7C7B0379471224F890037CE0C3EC
:103EC300940F502374051212F1E0C0E07402121231
:103ED300F1D0E0F074041212F17401F0041212F143
:103EE300AA82AB8312251C74051212F1AA82AB833A
:103EF3001224FE741E12103C022D2A1249979003BD
:103F03006B2212499790037522F0EEFCEFFD7A893C
:103F13007B031224E02274F7120A6EEB90037FF006
:103F23001215D48005740D12103C7F01020D24126A
:103F33003F38A3E022123FB1A322EAF0A3EBF02221
:103F4300123FB7F8A3E0F92274F7120A6E74F8125D
:103F530010BAEAFEEBFF7900900377E0640870443F
:103F630085188285198374FDF0A374FFF01216BEC1
:103F730074021212F1123F3D74051212F1E4123F62
:103F830038E0C0E074041212F1D0E0123FACC0E09C
:103F930074061212F1D0E0F074071212F1E4124029
:103FA300571217127408023F2A123FB1E022F08E13
:103FB300828F8322123FBCE022F085188285198309
:103FC3002212499722E0F8A3E0F9125F64E8F0A314
:103FD300E9F02212103C7F02020D24C082C08390BC
:103FE30003497478F0A37414F09003EF746CF0A396
:103FF3007417F090034D74AEF0A37414F090034F54
:104003007478F0A37414F090035174B4F0A374148F
:10401300F0023BF074F4120A6E74F91210BA8A08B3
:104023008B098C0A8D0B85188285198378081212E7
:104033006274041212F1E9F074051212F1E4F074DF
:10404300061212F1E412405712139A7407024177D1
:10405300E8F0A3E912405B22123FBCAA82AB8322A1
:1040630074F4120A6E8A088B098A828B83125F7238
:10407300EE4F700302416F90031212522D60158AA6
:10408300828B83A3A3E0F9EEFAEFFB9003131244B0
:10409300A91227378E828F83A3A3A3A3A3A3A3A3CA
:1040A300A3E0640270748E828F83A3A3A3A3A3A34C
:1040B300E054027003024141850882850983A3A36A
:1040C300E064E960798E828F83A3A3A3A3A3A3A350
:1040D300A3A3A3E070149011A5E0048E828F83A3A1
:1040E300A3A3A3A3A3A3A3A3A3F08E828F83A3A3BA
:1040F300A3A3A3A3A3A3A3A3E014124171A3A3A304
:104103007404F09011A61259ADE8F0A3E9126A867F
:104113008B0BEA450B70031264648E828F83A3A317
:10412300A3A3A3A3A3A3A3E0640260128E828F833D
:10413300A3A3A3A3A3A3A3A3A3E06406702E8E82C9
:104143008F83A3A3A3A3A3A3E0A2E0501F850882A8
:10415300850983A3A3E0F9EEFAEFFB12261E8E82F4
:104163008F83A3A3A3A3A3A3E054FEF08009124368
:10417300B822740D12103C7F04020D2474EC120A51
:104183006E74DD1210BAEAFEEBFF8C088D097437EA
:104193001212F1780C12128F750A0074051212F1C3
:1041A300AC82AD831225A074121212F1E070087470
:1041B300151212F1E0602074051212F1E0A2E6502C
:1041C3001E8E828F83A3A3A3A3A3A3A3A3A3125689
:1041D300A7121748E9600879031224C802439E74A2
:1041E300051212F1E0540C64047005750B01800391
:1041F300750B00E0A2E55035750A01E50BA2E0401E
:104203002C1216C48A108B11A810A911123DAEE00E
:10421300687003A3E069601574051212F1126F65EB
:104223001256A312262AE96004790480AC7405129D
:1042330012F1E0A2E6502274061212F1E054037068
:104243001874051212F1E0540C640C600CE0540C69
:10425300640860057510018003751000740512125F
:10426300F1E05403F8740268700C126F651256A3E0
:1042730012258E02439E740168703AE510A2E05045
:10428300031243A674051212F1A882A983740312C0
:1042930012F1E8F0A3E912498B851882851983127C
:1042A30043B0E0C0E074021212F1D0E012405712A2
:1042B300270E02439EE8600302439E90035FE0647F
:1042C3000170108E828F83A3A3A3A3A3A3E0700323
:1042D30002422C74221212F1740212498B741A12C4
:1042E30012F1123FD0E510A2E0500874051212F14A
:1042F3001243A6E50BA2E0506AEE240FF582EF12FB
:104303006629C0E074171212F1D0E0F09003141282
:10431300522D700302439E1216C48A128B13A812E5
:10432300A913741A1212F1E0687003A3E069706BA9
:10433300780C121021780A12102D7808121029A96E
:1043430010740C1212F1AC82AD8374211212F1AA13
:1043530082AB839003141244A612273774071210FA
:104363003C8038780C121021780A12102D7808122C
:104373001029900375120E24EE2412F582EF1263B6
:104383005774231212F1AC82AD83740E1212F1AA88
:1043930082AB83122612740912103C742312103C50
:1043A300026A51126F65125B4212259A22E8F0A34A
:1043B300E91243B8221243BC22F08E828F83A3A357
:1043C300A3A3A3A32274F7120A6E121F0A023F2D9E
:1043D30074F7120A6E121F1C023F2DC082C0831293
:1043E3001F16023BF074F7120A6E121F22023F2DB2
:1043F30074F7120A6E74091212F1E0F508780812C4
:10440300102D121F2E7401023F2AC082C083121F77
:104413003A023BF0C082C083121F40023BF074F7A4
:10442300120A6E121F46023F2D74F7120A6EEAFE3D
:10443300EBFF890874016508701479001214F09079
:104443002B35E493FC7900EEFAEFFB121466023F7E
:104453002D74F4120A6E74F91210BAE9FE8A088BED
:10446300098C0A8D0B74131212F11256A790066B66
:1044730012522D6027EE851882851983F07401127C
:1044830012F17808121262EAF8EBF974051212F1CC
:1044930012405390066B1244A612273702404EFB7C
:1044A30090034BE0F8A3E0F58388822274F7120AA5
:1044B3006E901152E0F97E00800B126615540D6464
:1044C300017001190E1246A95003E970ED023F2D48
:1044D30074F7120A6E901153E0F97E00800B126696
:1044E30015548D64817001190E1246A95003E970A9
:1044F300ED023F2D74F2120A6E890BE975F006A4E2
:10450300240CF508E5F01237528A0CE508250CFA5D
:10451300E5093400FB121D788A0C8B0DAE0CAF0D30
:10452300EE4F6027AC08AD097900121CDC123DAEDA
:10453300E50BF0EE2508F8EF3509F98E828F83A39A
:10454300A3A3A3A3A3A3A3A3123FD0EEFAEFFB025B
:1045530054A274F6120A6EEAFEEBFF121442901193
:1045630051E0F8E9C39840099003451256A7121485
:1045730048EE2402F8EF125CB7900347125B719088
:104583000347E004F0EEFAEFFB12144E8508828530
:104593000983E002616DC082C08379009003458086
:1045A30001091256A78A828B83E582458370F20242
:1045B3003BF074F7120A6EEAFEEBFFEE4F60569083
:1045C300034512522D604E888289837A007B00EE68
:1045D30065827003EF6583600FAA82AB8312461B6B
:1045E300E5824583602F80E7900345124627687074
:1045F30002EF698E828F837008123FC49003458057
:1046030003126A63123FD0EEFAEFFB1226DEEEFAD4
:10461300EFFB121D7E023F2D12461F2212499B887B
:1046230082898322124997EE22C082C08390034578
:1046330080048882898312522D600B8882898312B9
:104643004CDFEC4D70EC8A828B83E4F0A3F0E849F5
:104653006006888289838003900345123F3D023BB5
:10466300F074F7120A6E90034580048A828B8312DA
:1046730046A44B60257E0080010E1246A950ECEE45
:1046830075F006A4FCADF0EA2CFCEB3DFDEC241028
:10469300F582ED1246F970E180047A007B00023F57
:1046A3002D125B46EA22124702EEC3982274F712D8
:1046B3000A6E7D0080010D1246FEEDC3985034ED65
:1046C30075F006A4FEA8F0E8FFEA2EFEEB3FFFEE2E
:1046D3002410F582EF1246F970DCED75F006A4FEA6
:1046E300E8FFEA2EFAEB3FFBEA2411F582EB1266B0
:1046F300294CF0023F2D126635692212470222121D
:104703006F6FEB3400F583E0F82274F6120A6E1231
:1047130015687A007B008025EAF8EBF9E875F00666
:10472300A4F8ACF075F006E9A42C125B1B126E30F2
:10473300A3E4125C11F0A3126E36126FAD902B201E
:104743001233D140D37A007B00801C8A088B097412
:104753000378081211E91255CFA374FEF0A30412D3
:1047630059F1A3E4126FAD902B291247AC40DC7AC8
:10477300007B00801D8A088B09740378081211E9F5
:1047830074961262A17410126AE874FEF0A3041204
:104793006FAD902B2F1247AC40DB902B33E49390FB
:1047A3000353F01247B6023FD9E493F8C3EA98EBF8
:1047B3009400227CE87D037A107B009003C2E0F929
:1047C300121E322274F0120A6E74F51210BA8A089D
:1047D3008B09890A8C0BE9A2E050147508FC750952
:1047E300FFA2E15005D2E4024889D2E302488912CC
:1047F300548E7003A3E06970057900024956AC0A30
:104803007902AA08AB09121544E960EDE50AF50C33
:10481300780C12102D79027CFE7DFFAA08AB0912D9
:10482300520912103CE96003024954E50AC2E5F556
:104833000A9003B5E07051E50AA2E6404B740312F7
:1048430012F1AC82AD83AA08AB091225E2E97032FA
:10485300124B2A8A0C8B0DA80CA90DE8FEE9FFE880
:10486300496025EE24020A0AEF1230E1601AEE24B1
:1048730002FCEF3400FD74031212F1AA82AB83121F
:1048830024E0E50AD2E5F50A900348E0F50C90032D
:1048930068E0F50EA3E0F50F780E1210297D017C78
:1048A30000900348E0F9AA0EAB0F1214FC74021235
:1048B300103CE9F8900348E004F0E860030249542F
:1048C300E50AA2E55004740E80027406C0E0740188
:1048D3001212F1D0E0125F838A0E8B0FAE0EAF0F70
:1048E300EE4F606912497412498B8882898374017F
:1048F300F07478550AA3126F75E50C126F75A3E572
:1049030008F0E509124963E4F0E50AA2E5500F74E3
:10491300031212F1AC82AD83E8240612495A8E8247
:104923008F83A3A374FDF0A374FFF0E50B601590D0
:104933002B36E493F8E50BC3985009EE2413125F6A
:1049430056E50BF0EEFAEFFB121388800679108020
:104953000279C7740B8049FAE93400FB1224E02280
:1049630088828983A3A3A3A312496F22125CEAA3BB
:1049730022EE2417125F677401F01216BEEE241A9A
:10498300125F67EAF0A3EB22F0126F693400124959
:104993009522F58312499B22E0F8A3E0F922740DD6
:1049A30012103C7F08020D2474F6120A6E7A007B03
:1049B3001012647160089003D47401F08029900789
:1049C3000AE064019011A37006E0FC79018004E021
:1049D300FC79037A007B00121466902B1E1249EDBA
:1049E3007A007B101249FB023FD91249F122E4936A
:1049F300FC740193FD227B009003C2E0F9121E2C8C
:104A03002274EC120A6E8A088B098C0C8D0D890EA8
:104A130074141212F11253E874161212F1E0F51025
:104A2300A3E0F511121748E960077AFF7BFF024BF9
:104A3300279011A2E064026003024B1A7900AA08CE
:104A4300AB0912154AA90E12153E8A128B13AE1228
:104A5300AF13EE4F7003024B028E828F83A3A3A387
:104A6300A3A3E064018E828F83A3A370691256A768
:104A73008E828F83A3A3A3A3A3A3E05418604390C0
:104A83002B34E4938E828F83A3A3A3A3F0EA650C54
:104A93007003EB650D6014EA650A7003EB650B6048
:104AA3000AEA65107003EB6511701F781012102964
:104AB300AC0AAD0BAA0CAB0D121844740212103CD5
:104AC300800890036712645BA3F074FE6A7003743A
:104AD300FF6B601D804EA3A3A3E0640360298E8255
:104AE3008F83A3A3A3A3A3E0640470057AFE024A01
:104AF3002F8E828F83A3A3A3A3A3E06402700890E5
:104B030003B4E064027010124B2A8B0BEA450B606E
:104B130006AA08AB09800DAA08AB09900349124401
:104B2300A6122737026A5190037512520F12180802
:104B33002274F7120A6EEAFEEBFF12133AE9700AC7
:104B4300EEFAEFFB121346E96006EEFAEFFB800480
:104B53007AFE7BFF023F2D74F0120A6E8A0A8B0BDA
:104B63008C0E8D0F8909750800121748E9790060CA
:104B730003024CD1AA0AAB0B12154AA90912153E1E
:104B83008A0C8B0DAE0CAF0DEE4F60198E828F83A6
:104B9300A3A3A3A3A3E0640270559003B4E064024B
:104BA3007003024CCFAA0AAB0B90034F1244A61218
:104BB300273712134C8A0C8B0DA80CA90DE84970EA
:104BC30003024CCF88828983A3A3A3A3A3E0A2E01B
:104BD3004003024CCF750C01A2E150687901AC0A85
:104BE300AD0BAA0EAB0F121496E97064024CCF8E74
:104BF300828F83A3A3A3A3A3E064037005750C02B0
:104C030080528E828F83A3A3A3A3A3E064016003D6
:104C1300024CCF900375124CDF8E828F8312503477
:104C23008A0C8B0DA80CA90DE84960D1902B2DE4BB
:104C330093FA88828983E0C39A50C2A3E060030297
:104C43004CCF80B988828983A3A3A3A3A3D2E1F025
:104C5300EE4F603A8E828F83A3A3A3A3A3A3E05452
:104C630018602B7508018E828F83A3A3120E2475FF
:104C73000CFE750DFF780C1210297900AC0AAD0BF0
:104C8300AA0EAB0F12155C740412103C803E900305
:104C930068E0650E7004A3E0650F7014902B35E493
:104CA30093FCA909AA0AAB0B121466750801801CB0
:104CB300A90CAC0AAD0BAA0EAB0F121496E9700C3B
:104CC300750801A909AA0AAB0B1214F0A908024935
:104CD300A6E50C2415F582E50D125F6A1259C72269
:104CE30074EA120A6E74F01210BA8A0C8B0D8C08D7
:104CF3008D0974261212F1E0F514A3E0F51575126F
:104D0300069003F512522D6023900375124CDFAA0F
:104D130008AB091218328A108B11EA4511600D8A0B
:104D2300828B83A3E07005790002501CE50C241DDF
:104D3300F50EE50D3400F50F850E82125219F513A9
:104D430088828983A3A3A3E0FA88828983A3A3A388
:104D5300A3E0F9EA2400FEE439FFAA08AB09121420
:104D6300F6850E82850F83125057E029F50BE50A6D
:104D7300A2E5500375120E7487550A7017741855FF
:104D83000A6418600FE50C2417F582E50D126629F5
:104D93006512600779011224C8808C530A78C3EE28
:104DA30094F8EF94FF501D7900EEFAEFFB125026B2
:104DB300601288828983A3A3A3A3A3A3E0541860EA
:104DC30003024D2A78081210297D0012504A12104E
:104DD3003CE9F87403687003024D2AE86003024E4D
:104DE300957418550A7003024F4AE50AD2E0F50A92
:104DF300A2E45004D2E1F50AA90A1256A0125026E1
:104E0300605388828983A3A3A3A3A3A3E054186058
:104E13004488828983A3A3A3A3A3E064017036E536
:104E23001045116030900375124CDF88828983121C
:104E330050348A0E8B0FA80EA90FE8496017888299
:104E43008983A3E0600F851082851183A3126178A3
:104E53005003024D2AE50AF50E780E12102D12505A
:104E63003D12103CE9702B7C007D00851482851572
:104E73008374FFF0A3F0850C82850D83A3A3A3A302
:104E8300A3A3A3A3E06003124CD4A90B1256A01250
:104E93001F34851482851583E0F47003A3E0F46066
:104EA300399003B4E064027003024D2A1253D9E02F
:104EB300FAA3E01244A2122737EA65087003EB65F0
:104EC300096003024D2AEEFAEF1244A21227378536
:104ED3001482851583EAF0A3EBF078081210297D7C
:104EE3000112504A12103CA90AEEFAEFFB12154ABE
:104EF3008A088B09A808A909900368E0687003A3CE
:104F0300E069600302500DEEFAEFFB12134C8A08BE
:104F13008B09A808A909E849606E88828983A3A33D
:104F2300A3A3E06401600D88828983A3A3A3A3E004
:104F330064027054851882851983AC82AD83EEFABE
:104F4300EFFB1225E28055900361E0600FE50AF55F
:104F53000E780E12102D12503D12103CE50AF50E7C
:104F6300780E12102D79027CFE7DFFEEFAEFFB1214
:104F7300520912103CE96003024E9585148285158F
:104F83008374FFF0A3024EDC1216BEEAFCEBFD8530
:104F93001882851983AA82AB831224E0850C82854B
:104FA3000D83A3A3A3A3A3A3A3A3E06401700F1280
:104FB3004CD474081212F1AA82AB831224E012516A
:104FC300E3125DEF4430F508780812102D740112D6
:104FD30012F18582088583097808121029740B124F
:104FE30012F18582088583097808121029E513F5E3
:104FF30008780812102D7900EEFCEFFD1256A0126E
:105003001490740612103C024D2A1251E3125F5998
:10501300125057E50BF01216D6741012103C7F0E87
:10502300020D2412153E8A0E8B0FA80EA90FE84914
:1050330022A3A3125B46121832227901AC08AD09F0
:10504300125B3B12520922AC0BA913125B3B1214E5
:10505300FC740222125DF7A3A3A3A32274F0120A25
:105063006E74F01210BA8A0C8B0DECFAEDFB750F0F
:10507300089003F512522D60141261718A828B839A
:10508300E58245836007A3E070030251DE1251E31A
:105093003400125219F50B888289831251ECE0FB1C
:1050A300EC2400FEE43BFF88828983A3A31251EC26
:1050B300A3A3E0FBECF508E43BF50988828983A30D
:1050C300A3A3A3A3A3A3E0F50EE50AA2E4500375EB
:1050D3000F10A2E550067408250FF50F748F550ABB
:1050E300700FE50C2417F582E50D126629650F6034
:1050F3000879011224C80251DE530A707800E50AC8
:10510300A2E450221251E31266292408FCA3E034DE
:1051130000FD74081212F1AA82AB831224E078080E
:10512300E50AC2E4F50AE50AA2E550281251E312A2
:10513300662928F8A3E03400F9E82408FCE93400E0
:10514300FD851882851983AA82AB831224E0E50AC0
:10515300C2E5F50AAC0EA90BEEFAEFFB121502E954
:10516300F87403686075900368E06E7003A3E06FE2
:10517300605EE87054E50AF50F780F12102D125196
:10518300FA12103CE97054780A12102D74011212AD
:10519300F185820C85830D780C121029740B121281
:1051A300F185820C85830D780C121029E50BF50A25
:1051B300780A12102DA90EAC08AD09EEFAEFFB1216
:1051C3001490740612103C8012740468700D80B73A
:1051D300780A12102D1251FA12103C74100249A3CE
:1051E300E50C241DF582E50D22A3A3A3E0FC888230
:1051F3008983A3A3A3A32279011253E0125F6A1246
:10520300520F125209221214BA740122E0FCA3E0D5
:10521300FDAA08AB0922F58312461FA3E0F50A880D
:10522300828983A3A3E022900339125BA22274E84C
:10523300120A6E74F51210BAEAFEEBFF8C088D09A0
:10524300891474231212F1E0F50F74241212F1E0A1
:10525300F512A3E0F51374261212F1E0F516A3E09C
:10526300F51774281212F1E0F50EA90F1215088A2A
:10527300108B1174011212F17408F0E50EA2E450C0
:10528300037410F0E50EA2E55004E02408F085183D
:1052930082851983AA82AB831217308A0C8B0DEA9D
:1052A300450D70030253C0EA2417F582EB1253D263
:1052B3001216BEE50C241AF582E50D125F59123F52
:1052C3003D74031212F1AC82AD83AA10AB11122507
:1052D300E2E9601D1253CA74031212F1A882A98372
:1052E300E50C2418F582E50D125F59E8F0A3E98077
:1052F30024E50EA2E4501FE5106E7003E5116F70F4
:10530300151253CAE50C2418F582E50D125F59E511
:1053130012F0A3E513F01253D91253E8850A82F56C
:10532300837402F0A3E50E1253F0E50FF0EE850A45
:1053330082850B83A3A3A3F0EF850A82850B83A346
:10534300A3A3A31253F0A3A3A3E508F0E509850AD9
:1053530082850B83A3A3A3A3A3A3F0AA10AB11126B
:1053630014F6E92514850A82850B83A3A3A3A3A3BB
:10537300A3A3F0750800E50EA2E45011AC12AD131F
:10538300E50A2408FAE50B12495C750808E50EA244
:10539300E55014AC16AD17E50A2508F8E50B340003
:1053A300F9E8240812495A850C82850D83A3A3E5E5
:1053B30010F0A3E511F0AA0CAB0D121388740B12B5
:1053C300103C7F10020D24E50C2416F582E50D1226
:1053D3005F6A7401F0221253E0125F6A22E50C1235
:1053E3006F70E50D22E0F50AA3E0F50B22F0850AC4
:1053F30082850B83A3A32274F2120A6E8A088B0997
:10540300ECFEEDFF890A790012548E7003A3E06964
:10541300700479018073750B01900368E06508706F
:1054230004A3E06509601F750B00780B12102DA90A
:105433000AEEFCEFFDAA08AB0912178474011210DF
:105443003CE9F50B80417900EEFAEFFB12153EEAD9
:105453004B602B8A828B83A3A3A3A3A3A3E054183B
:10546300601C7508FE7509FF78081210298A828B63
:1054730083A3A3120E24126D8512103C80097901B7
:10548300EEFAEFFB12141EA90B801412154A8A0CB4
:105493008B0DA80CA90D900368E0682212103C7FC5
:1054A30006020D2474F4120A6E7508DE75090E7A6D
:1054B30010126A8D8B0BEA450B70031247B69003EB
:1054C30053E014F0700C902B33E493900353F012D9
:1054D30015567E007F00806C850882850983A3A30F
:1054E300A3A3E06059F46056E5082404F582E509B6
:1054F3001264557049850882850983A3A3A3A3A3D6
:10550300E0640370197902850882850983124CDFF0
:10551300850882850983A3A31256A71214968508CA
:1055230082850983A3A3A3A3A3E064016010850874
:105533008285098374FEF0A304125601E4F0123845
:10554300F812374A902B22126BE9408C7E007F00C1
:1055530080391216648E088F09740378081211E9D2
:1055630074562508FC74103509FD7AA27B141216B3
:1055730052EA4B70DD8E088F09740378081211E923
:105583001255CF126E30E4F01238F8902B29E493C1
:10559300F8C3EE98EF9400501B8E088F09740378BC
:1055A300081211E91255D7E82407F582E912645568
:1055B30070D680A17E007F00800A1255E26002143B
:1055C300F01238F8126BE640F102417A1255D7888F
:1055D3008289832274562508F874103509F922EE5E
:1055E300F8EFF9E875F006A4F8AAF075F006E9A457
:1055F3002AF974F628F582740F39F583E0221256DE
:1056030008A3A3A322F0850882850983A3A3227498
:10561300F7120A6E74E11210BAECFEEDFF75080082
:10562300EE4F60728A828B83E0241C1264861252CE
:105633002D60638A828B831256A78518828519830E
:10564300AC82AD83EA241BF582EB126357EA241C78
:10565300F582EB1256A31216A6740B1212F1125610
:10566300AB7003A3E069702E74021212F1E06401BF
:105673007024741D1212F11244A6E06401701774B1
:105683001D1212F11244A8A3A3E0F88E828F83E0C7
:10569300687003750801A908741F023F2A1253E0BA
:1056A3003400F583125B462212309FE0682274F4C3
:1056B300120A6EE97024790090034D1244A6122752
:1056C300378A0A8B0BAE0AAF0B74FE6E700374FF3E
:1056D3006F701A902B30E4936013790190034D128D
:1056E30044A61227378A0A8B0BAE0AAF0B1216F4A5
:1056F300023A4C74F6120A6E74F31210BA121CEECC
:105703008A088B09AE08AF09900368E06E7003A3A3
:10571300E06F60E91216CAEA6E7002EB6F60DEEEAC
:10572300FAEFFB121748E970D4EE4F60D085188268
:10573300851983E4F0041212F1EEF0A3EF12575926
:10574300E970BA74FE6E700374FF6F60B0EEFAEF27
:10575300FB740D023FD612405B121CB822C082C0FC
:10576300831216F4023BF07F0A020D2474F2120A2C
:105773006EEAFEEBFF8C0A8D0B8908740E1212F190
:10578300E0F50974FC6E700374FF6F700579000215
:1057930054A2790012154A8A0C8B0DAE0CAF0D90F2
:1057A3000368E06E7003A3E06F7006E509A2E6509C
:1057B300DCA909126C73706179007AFE7BFF126CAD
:1057C3007370567418550970030258A6780079004F
:1057D3008003123299902B2212329040030258A672
:1057E300E8FAE9FBEA75F007A4FAACF075F007EB09
:1057F300A42CFB74E42AF582740E3BF583E0541861
:1058030070D0E875F007A4F8AAF075F007E9A42AA8
:10581300F974DE28F8740E39F988828983A3A3A367
:10582300A3A3A3E054186009741855097003025721
:105833009088828983EEF0A3EFF074FE650A70040A
:1058430074FF650B60031259CD88828983A3A3A3D8
:10585300A3A3A3E509F0A2E0500D88828983A3A343
:10586300A3A3A3A3D2E2F07401650888828983A36A
:10587300A3A3A3A3703874011259F1E0541860284C
:10588300902B34E49388828983A3A3A3A31259BBE7
:105893001218328B0DEA450D600302579078007998
:1058A3000080397902025792900367E080D7E06461
:1058B30001700302579088828983A3A3A3A3A3A3A0
:1058C300E054186007902B34E4938004900366E05F
:1058D300124963E508F0025790123299902B2AE49B
:1058E30093FAC3E89AE9940040030257907A007B45
:1058F30000804BEAFCEBFDEC75F007A4FCAEF07501
:10590300F007EDA42EFD74E02CF582740E3DF583B3
:10591300125F72E8FCE9FDEC75F017A4FC85F00951
:1059230075F017EDA42509FD746E2CF582740D3DF9
:10593300F583E06E7003A3E06F609E1237CD902B6A
:105943002212375A40AD1249EDEC6A7002ED6B70CA
:1059530088E875F017A4F8AAF075F017E9A42AF9F6
:10596300746E28FE740D39FF7C177D007900EEFA02
:10597300EFFB121CDC8E828F831259D390037512B6
:1059830059ADA3A3A3A3A3A3E8F0A3E91259B37446
:1059930001F0EE240E125F5674011259DB1208A5B2
:1059A300EE240D125F56E80258D8123DBFA3A3227E
:1059B300F0EE240F125F6722F01259C4AA0AAB0B50
:1059C30022900375E0FCA3E0FD2288828983A3A3D0
:1059D300E50AF0A3E50BF022F01259E022902B2DFB
:1059E300E4932401F8E43400F97A027B002212499B
:1059F3006FA32274ED120A6E8A088B09890E125B5B
:105A03002440057905025AF2121F7CAA08AB091239
:105A13005BF6902B20125AF5650A7003E9650B704B
:105A2300077AFE7BFF125BF6902B20E4125AFDE50A
:105A33000A98E50B994003025AF0125B016012E5E4
:105A43000A75F006A4F875F006E50B125B4C121DFF
:105A53007EE50E6018E50A75F006A4F8AAF075F065
:105A630006E50B125B78701A7901025AF2E50A75A2
:105A7300F006A4F8AAF075F006E50B125B59E4F002
:105A8300A3F0E50A75F006A4F8AAF075F006E50B95
:105A9300125B19A3125E0588828983A3AA82AB8352
:105AA300125B678A828B83E0603F125B01603A8EF0
:105AB300108F117512007810121025E50EC333FCF8
:105AC300E433FDE50A75F006A4F50AA8F075F006BF
:105AD300E50BA428F50B74FA250AF582740F350B30
:105AE3001256A512376B12103C7900800279070217
:105AF3006C891233F2E822902B1812661022E50A01
:105B030075F006A4F8AAF075F006E50B125B54F8DD
:105B1300A3E0F9E84922A42A125CAD88828983A311
:105B230022ECFEEDFF902B2BE493F8E9C39822F5CA
